:20000000080808080808080008080000000000000000000000000008000008000808080868
:20002000080800080808080008080000000000000000000000000008000008000808080850
:200040000000000000000000000000000000000000000000000000000000000000000000A0
:20006000000000000000000800000800080808080808080808080800080800000000000008
:20008000000000000000000800000200080808080000000000000000000002000000000034
:2000A0000A0A0A0A0A0A0A020A0A020202020202020202020202020A02020A020A0A0A0A88
:2000C0000A0A0A0A0A0A0A020A0A020202020202020202020202020A02020A020A0A0A0A68
:2000E00002020202020202020202000202020202020202020202020A02020A020A0A0A0A92
:200100000A0A0A0A0A0A0A020A0A020202020202020202020202020A02020A020A0A0A0A27
:20012000020202020202020202020A02020202020505050505050505050505050505050547
:20014000050505050505050D05050D0A0D0D0D0D0D0D0D0D0D0D0D050D0D050A050505057D
:20016000050505050505050D05050D0A0D0D0D0D0D0D0D0D0D0D0D050D0D050A050505055D
:20018000070707050707070D07070D0A0D0D0D0D05050505050505050505000A050505057A
:2001A000050505050505050D05050D0A0D0D0D0D0D0D0D0D0D0D0D050D0D050A050505051D
:2001C000050505050505050D05050D0A0D0D0D0D0D0D0D0D0D0D0D050D0D050A05050505FD
:2001E000070707070707070D07070D0A0D0D0D0D07070707070707070707070707070707F8
:00000001FF
